:020000040800F2
:100000008004002001010008090100080B0100081C
:100010000D0100080F010008110100080000000098
:1000200000000000000000000000000013010008B4
:10003000150100080000000017010008F114000875
:100040001B0100081B0100081B0100081B01000820
:100050001B0100081B0100081B0100081B01000810
:100060001B0100081B0100081B0100081B01000800
:100070001B0100081B0100081B0100081B010008F0
:100080001B0100081B0100081B0100081B010008E0
:100090001B0100081B0100081B0100081B010008D0
:1000A0001B0100081B0100081B0100081B010008C0
:1000B0001B0100081B010008BD1500081B010008FA
:1000C0001B0100081B0100081B0100081B010008A0
:1000D0001B0100081B0100081B0100081B01000890
:1000E0001B0100081B0100081B010008DFF80CD0F1
:1000F00000F018F80048004711180008800400209C
:100100000648804706480047FEE7FEE7FEE7FEE7B1
:10011000FEE7FEE7FEE7FEE7FEE7FEE775150008EF
:10012000ED000008064C074D06E0E06840F00103D2
:1001300094E8070098471034AC42F6D3FFF7DAFF93
:10014000441800086418000810B51C488EB01A49FD
:10015000016040F2CF710024C0E90114FF21C0E921
:10016000031400F0F7FE00B1FEE74FF48050079053
:1001700007A9124800F040FF00B1FEE70F4801F068
:10018000F4F800B1FEE70B940BA90C480C9400F0B6
:10019000B9FE00B1FEE76020CDE900040294082218
:1001A00069460648049401F078F800B1FEE7034878
:1001B00000F09CFF0EB010BD00080040440000207D
:1001C00031B500F0EDF8044600F0EAF80099001BA4
:1001D0008842F9D338BD00002DE9F84FDFF890A12F
:1001E00000220AF1040B144601274FF00F090BF10E
:1001F000040E00BF0B6807FA04F52B40AB4274D124
:10020000DFF870C14E68A6EB0C0866452BD00DDCFC
:10021000032E34D005DC36B3012E19D0022E2FD197
:100220001BE0112E16D0122E2AD119E0B8F5881F26
:1002300019D006DCB8F5803F15D0B8F5801F1FD166
:1002400011E0B8F5001F0ED0B8F5041F18D10AE070
:10025000CA6815E0CA68121D12E0CA6808320FE0C9
:10026000CA680C320CE08A682AB1012A4FF00802F1
:1002700003D0456104E0042202E0056100E00022B1
:10028000FF2B01D8064601E000F104064FEA840581
:1002900001D9A5F12005D6F800C009FA05F82CEA25
:1002A000080C02FA05F54CEA050CC6F800C04D68CA
:1002B000ED0057D5304DAE6946F00106AE61AD692F
:1002C00024F0030605F0010500952C4D06EB050C06
:1002D000DCF80850A6074FEA167809FA08F6B54385
:1002E000274EB04202D1002610E03BE0254EB0423E
:1002F00001D101260AE0244EB04201D1022605E0D8
:10030000224EB04201D1032600E0042606FA08F688
:100310002E43CCF808604D68DAF80060ED035546CE
:1003200001D51E4300E09E432E604D68DBF800605F
:10033000AD035D4601D51E4300E09E432E604D682F
:10034000DEF80060ED02754601D51E4300E09E43D5
:100350002E604D68AD020E4D2E6801D51E4300E0A3
:100360009E432E60641C102CFFF444AFBDE8F88F50
:100370000004014000001110001002400000014084
:1003800000080140000C0140001001400014014031
:100390000C0401400AB1016170470904FBE7000049
:1003A0000148006870470000000000200248016812
:1003B000491C01607047000000000020074810B58C
:1003C000016841F010010160032000F05BF800209B
:1003D00000F006F800F016F8002010BD00200240E2
:1003E00010B5044600F0A4F94FF47A71B0FBF1F0B7
:1003F00000F06EFD00222146501E00F023F8002080
:1004000010BD000010B5052000F03CF80022114698
:10041000501E00F017F80448416821F0E06141F0F7
:100420008061416010BD00000000014000F01F022B
:10043000012191404009800000F1E020C0F8001146
:1004400070470000F0B40E4B1B680C46C3F3022348
:10045000C3F10705042D00D90425191D072901D270
:10046000002300E0DB1E012606FA05F1491E2140AB
:1004700099409E40761E16403143F0BC01F028B8EA
:100480000CED00E0064900F0070208684FF6FF0394
:10049000184040EA0220034A1043086070470000F9
:1004A0000CED00E00000FA052DE9F047DFF8789246
:1004B00005460E46D9F80000022300F00707012088
:1004C00041044206994C41F28838B74271D2D9F8BA
:1004D00000C02CF0070C4CEA060CC9F800C0D9F893
:1004E000007007F00707B7426FD12E78B60705D521
:1004F0006668AF6826F0F0063E4366602E78F60721
:1005000056D06E68012E0BD0022E1ED093FAA3F1A6
:10051000B1FA81F141F02001490924D0216823E09A
:1005200091FAA1F2B2FA82F242F02002520901D00D
:10053000226800E0626A91FAA1F1B1FA81F101F05A
:100540001F018840024240D017E092FAA2F1B1FAAE
:1005500081F141F02001490901D0216800E0616A80
:1005600092FAA2F202E0616A93FAA3F2B2FA82F27C
:1005700002F01F029040014227D0606820F0030083
:1005800030436060FFF70CFF06466868012809D019
:100590000228474613D01EE0FFF702FF801BB84237
:1005A00001D992E047466068C0F381000128F3D189
:1005B000A1E015E0FFF7F4FE801BB84273D8606835
:1005C000C0F381000228F5D195E092E0FFF7E8FE44
:1005D000801BB84279D8606810F00C0FF6D18AE021
:1005E0002F78BF0707D56768D5F808C027F0F00750
:1005F00047EA0C0767602F78FF076DD06F68012FFF
:100600000BD0022F1ED093FAA3F1B1FA81F141F081
:100610002001490924D0216823E091FAA1F2B2FA1D
:1006200082F242F02002520901D0226800E0626AA0
:1006300091FAA1F1B1FA81F101F01F018840024263
:1006400057D017E092FAA2F1B1FA81F141F02001FE
:10065000490901D0216800E0616A92FAA2F202E041
:10066000616A93FAA3F2B2FA82F202F01F0290409A
:1006700001423ED0606820F0030038436060FFF71D
:100680008FFE07466868012807D0022811D01FE0B6
:10069000FFF786FEC11B414517D86068C0F3810093
:1006A0000128F5D118E010E0FFF77AFEC11B4145A3
:1006B0000BD86068C0F381000228F5D10CE000BFC0
:1006C000FFF76EFEC11B414502D90320BDE8F0874C
:1006D000606810F00C0FF3D1D9F8001021F0070179
:1006E0003143C9F80010D9F8000000F00700B0420B
:1006F00001D00120EAE72878400705D56068E9685D
:1007000020F4E060084360602878000706D5606840
:10071000296920F4605040EAC10060600020FFF7C2
:100720005FFE0020D2E700000020024000100240DF
:1007300010B500F017F808494968F02292FAA2F2C1
:1007400001F0F001B2FA82F2D140044A515CC84093
:100750000349086010BD0000001002403418000872
:100760000800002010B519A385B00FCB8DE80F004D
:100770001AA01B4B006804905A681A4802F00C013A
:1007800004291DD008291BD14FF4701494FAA4F445
:1007900002F47011B4FA84F4E140D2031DF80110A0
:1007A00010D55A684FF4003393FAA3F302F40032E1
:1007B000B3FA83F3DA4004AB9A5CB0FBF2F048433F
:1007C00005B010BD08484843FAE7000002030405DD
:1007D000060708090A0B0C0D0E0F1010010200008D
:1007E0000010024000127A0000093D002DE9F84F88
:1007F00005460078DFF85C95C0074FF0010429D06A
:10080000D9F804004E46C0F381006704012807D0E0
:100810007068C0F3810002281DD17068C0031AD52A
:1008200097FAA7F0B0FA80F040F02000400901D01C
:10083000306800E0706A97FAA7F1B1FA81F101F02F
:100840001F0104FA01F1084204D06868012801D0B0
:10085000052879D184E0306820F480303060306839
:1008600020F480203060FFF79BFD824641F28838FB
:1008700006E000BFFFF794FDA0EB0A0141457DD8DB
:1008800097FAA7F0B0FA80F040F02000400901D0BC
:10089000306800E0706A97FAA7F1B1FA81F101F0CF
:1008A0001F0104FA01F10842E4D1306820F48030DD
:1008B0003060686801280BD0052811D0306820F41A
:1008C00080203060686858B3FFF76AFD824611E007
:1008D000306820F480203060306840F48030F0E7E9
:1008E0000520B070EEE700BFFFF75AFDA0EB0A014C
:1008F0004145C4D897FAA7F0B0FA80F040F0200044
:10090000400901D0306800E0706A97FAA7F1B1FAA7
:1009100081F101F01F0104FA01F10842E4D01FE067
:10092000FFF73EFD824605E0FFF73AFDA0EB0A0126
:100930004145A4D897FAA7F0B0FA80F040F0200023
:10094000400902D0306801E0BAE0706A97FAA7F176
:10095000B1FA81F101F01F0104FA01F10842E3D17B
:100960002878FD4F80074FF0000A4FF0020634D57B
:10097000D9F80410484611F00C0F00E0B0E108D09F
:100980004168C846C1F38101022927D14168C903E2
:1009900024D496FAA6F1B1FA81F141F02001490977
:1009A00001D0016800E0416A96FAA6F2B2FA82F23A
:1009B00002F01F0204FA02F2114202D02969012951
:1009C0007ED10168F82321F0F80293FAA3F3696954
:1009D000B3FA83F399400A4302604FE0286938B3C1
:1009E00094FAA4F0B0FA80F047F82040FFF7D8FC62
:1009F000834605E0FFF7D4FCA0EB0B00642898D8F1
:100A000096FAA6F0B0FA80F040F020004009404687
:100A100001D0006800E0406A96FAA6F1B1FA81F1CF
:100A200001F01F0104FA01F10842E3D04046C8E793
:100A300094FAA4F1B1FA81F147F821A0FFF7B0FCD4
:100A4000834605E0FFF7ACFCA0EB0B006428D6D88A
:100A500096FAA6F0B0FA80F040F020004009404637
:100A600001D0006800E0406A96FAA6F1B1FA81F17F
:100A700001F01F0104FA01F10842E3D128780007D0
:100A800073D5A869D8B394FAA4F0B0FA80F007EB54
:100A90008000C0F88044FFF783FC804606E000BF7A
:100AA000FFF77EFCA0EB08006428A8D896FAA6F011
:100AB000B0FA80F040F06000B4EB501F04D100E0C9
:100AC000D7E1D9F800000CE096FAA6F0B0FA80F071
:100AD00040F06000B6EB501F484601D1006A00E0CC
:100AE000406A96FAA6F1B1FA81F101F01F0204FA08
:100AF00002F10842D4D00120FFF762FB35E0FFE7A6
:100B000094FAA4F1B1FA81F107EB8101C1F880A454
:100B1000FFF746FC804605E0FFF742FCA0EB08002B
:100B2000642894D896FAA6F0B0FA80F040F06000FD
:100B3000B4EB501F02D1D9F800000CE096FAA6F0F1
:100B4000B0FA80F040F06000B6EB501F484601D18B
:100B5000006A00E0406A96FAA6F1B1FA81F101F06C
:100B60001F0204FA02F10842D6D1287840077DD549
:100B7000D9F81C1041F08051C9F81C10D9F81C009C
:100B8000DFF8D8B100F080500090DBF8001041F49D
:100B90008071CBF80010FFF703FC804606E000BF31
:100BA000FFF7FEFBA0EB08006428BAD8DBF80000D2
:100BB000C005F5D594FAA4F1B1FA81F107EB8101F2
:100BC000C1F800A44FF0040B9BFAABF1B1FA81F12C
:100BD00007EB8101C1F800A4FFF7E2FB009007E0FA
:100BE000FFF7DEFB0099411A41F28830814277D845
:100BF00096FAA6F0B0FA80F040F04000B4EB501F37
:100C000002D1D9F800000CE096FAA6F0B0FA80F014
:100C100040F04000B6EB501F484601D1006A00E0AA
:100C2000406A96FAA6F1B1FA81F101F01F0104FAC7
:100C300001F1A0460842D3D1E868E0B1012850464E
:100C40002AD094FAA4F1B1FA81F107EB8101C1F83D
:100C500000049BFAABF000BFB0FA80F007EB800015
:100C6000C0F80044E868012821D000E083E0FFF7E5
:100C700097FB834656E094FAA4F1B1FA81F107EBB1
:100C80008101C1F800A49BFAABF1B1FA81F107EB45
:100C90008101C1F800A4E5E79BFAABF1B1FA81F15B
:100CA00007EB8101C1F8000494FAA4F0D4E7FFF740
:100CB00077FB834608E000BFFFF772FBA0EB0B0158
:100CC00041F2883081420BD896FAA6F0B0FA80F053
:100CD00040F04000B8EB501F03D1D9F800000DE000
:100CE0009DE096FAA6F0B0FA80F040F04000B6EB36
:100CF000501F484601D1006A00E0406A96FAA6F10A
:100D0000B1FA81F101F01F0208FA02F10842D3D0D2
:100D100031E000BFFFF744FBA0EB0B0141F288304C
:100D200081427CD896FAA6F0B0FA80F040F04000FC
:100D3000B8EB501F02D1D9F8000012E096FAA6F0E5
:100D4000B0FA80F040F04000B6EB501F484607D1A3
:100D5000006A06E0001002400000424200700040BD
:100D6000406A96FAA6F1B1FA81F101F01F0208FA81
:100D700002F10842CED1E869B0B3D9F804104E466A
:100D8000C1F38101022974D002284FF080714FF025
:100D9000007950460AD091FAA1F1B1FA81F147F8F1
:100DA0002100FFF7FDFA07464D466BE08A4691FAAF
:100DB000A1F1B1FA81F1BB4647F82100FFF7F0FA43
:100DC00080464F4606E000BFFFF7EAFAA0EB0800B6
:100DD000642854D897FAA7F0B0FA80F040F02000C9
:100DE000400902D0306801E061E0706A97FAA7F12B
:100DF000B1FA81F101F01F0104FA01F10842E3D1D7
:100E0000286AB0F5803F05D17068A96820F40030E9
:100E100008437060D5E908010843716800E02EE0DE
:100E200021F47411084370609AFAAAF0B0FA80F0C5
:100E30004BF82040FFF7B4FA054604E0FFF7B0FA9C
:100E4000401B64281BD897FAA7F0B0FA80F040F056
:100E50002000400901D0306800E0706A97FAA7F1DD
:100E6000B1FA81F101F01F0104FA01F10842E5D065
:100E70001DE01EE0FFF794FAC01B642802D903208E
:100E8000BDE8F88F95FAA5F0B0FA80F040F02000A8
:100E9000400901D0306800E0706A95FAA5F1B1FA16
:100EA00081F101F01F0104FA01F10842E2D10020B2
:100EB000E6E70120E4E74FF0E0210428086903D0C9
:100EC00020F004000861704740F00400FAE7704722
:100ED00010B5401EB0F1807F01D3012010BD4FF04E
:100EE000E02460610F21601700F0F2FA0020A06199
:100EF00007202061002010BD10B5FFF7E8FF10BDEE
:100F00007047704730B590F83820012A20D0012270
:100F100080F83820022380F8393003685C6824F0B8
:100F200070045C6003685C680D682C435C60036857
:100F30009C6824F080049C6003689C6849680C43AA
:100F40009C6080F83920002180F83810084630BDB8
:100F5000022030BD10B5040003D094F8390010B160
:100F600007E0012010BD002084F83800204600F082
:100F70000DF8022084F83900211D206800F024FBC0
:100F8000012084F83900002010BD000000B5006881
:100F9000104985B088421BD10F48C16941F0040156
:100FA000C161C069694600F0040004904FF480708C
:100FB000009002200190032003900848FFF70CF9ED
:100FC000002201211E20FFF73DFA1E20FFF72EFA16
:100FD00005B000BD0008004000100240000C0140B8
:100FE0000168CA6842F00102CA600068016841F005
:100FF000010101600020704770B5044690F8380088
:10100000012817D0012584F83850022084F83900CF
:101010002068826822F0770222F47F4282600868AA
:10102000502837D00DDC202859D005DC88B3102893
:1010300041D151E0022070BD302853D040283AD130
:101040003FE060282ED070280BD0B0F5805F03D031
:10105000B0F5005F2FD110E02068816821F0070112
:1010600015E0CB68D1E90121206800F0EAFA216897
:10107000886840F0770088601DE0CB68D1E90121E5
:10108000206800F0DEFA2068816841F480418160C8
:1010900011E01EE0CA684968206800F087FB502113
:1010A000206806E0CA684968206800F090FB60216B
:1010B000206800F0D0FA84F83950002084F8380015
:1010C00070BDCA684968206800F070FB4021206844
:1010D000EFE700212068ECE710212068E9E72021F4
:1010E0002068E6E730212068E3E7000000B50068EB
:1010F0000C4985B0884213D10B48C16941F0040105
:10110000C161C069694600F0040004904FF480702A
:10111000009002200190032003900448FFF75CF840
:1011200005B000BD0008004000100240000C014066
:10113000704770B50446006801694FF00005C94367
:10114000890715D4C168C943890711D4E91E016113
:1011500001202076206880698007204602D0FFF7B2
:10116000E7FF04E000F098F8204600F043F9257608
:1011700020680169C943490717D4C168C9434907B1
:1011800013D46FF004010161022020762068806989
:1011900010F4407F204602D0FFF7CAFF04E000F0C1
:1011A0007BF8204600F026F9257620680169C943BE
:1011B000090716D4C168C943090712D46FF00801A2
:1011C0000161042020762068C0698007204602D093
:1011D000FFF7AEFF04E000F05FF8204600F00AF9E8
:1011E000257620680169C943C90617D4C168C94377
:1011F000C90613D46FF01001016108202076206821
:10120000C06910F4407F204602D0FFF791FF04E050
:1012100000F042F8204600F0EDF8257620680169DC
:10122000C943C90708D1C168C943C90704D1891E88
:101230000161204600F0F8F820680169C9430906F9
:1012400009D4C168C943090605D46FF08001016162
:101250002046FFF755FE20680169C943490609D4B5
:10126000C168C943490605D46FF0400101612046B9
:1012700000F0F6F820680169C94389060BD4C168FB
:10128000C943890607D46FF0200101612046BDE8FB
:101290007040FFF736BE70BD704770B5044690F8D9
:1012A00038000D4601280DD0012684F83860022050
:1012B00084F8390042B1042A18D0082A2AD00C2A0E
:1012C0004DD139E0022070BD206800F0CDF92068D2
:1012D000816941F0080181612068816921F0040180
:1012E0008161206881692A69114311E0206800F05A
:1012F000E3F92068816941F40061816120688169B6
:1013000021F480618161206881692A6941EA0221B2
:10131000816124E0206800F0FBF92068C16941F098
:101320000801C1612068C16921F00401C161206820
:10133000C1692A69114311E0206800F015FA20689C
:10134000C16941F40061C1612068C16921F4806113
:10135000C1612068C1692A6941EA0221C16184F83A
:101360003960002084F8380070BD10B5040003D047
:1013700094F8390010B107E0012010BD002084F876
:101380003800204600F00CF8022084F83900211DB6
:10139000206800F019F9012084F83900002010BD00
:1013A00000B50068104985B088421BD10F48C1695B
:1013B00041F00401C161C069694600F00400049075
:1013C0004FF48070009002200190032003900848A1
:1013D000FEF702FF002201211E20FFF733F81E2036
:1013E000FFF724F805B000BD0008004000100240DF
:1013F000000C01407047000010B50446006801224F
:1014000000F014F907492068884203D1416C41F487
:10141000004141642068016841F001010160002041
:1014200010BD0000002C01400A484178491CC9B297
:1014300041700A290DD3094B074A01781B68525C99
:10144000DA63491CC9B200220170282900D3027056
:1014500042707047040000201C000020440000205F
:1014600070470000F0B5184885B0816941F0080167
:101470008161816901F008010491816941F00801ED
:1014800081618069012200F00800104F140204906D
:1014900021463846FEF77EFF012256023146384685
:1014A000FEF778FF0094012402256946384603952B
:1014B0000194FEF791FECDE9006469463846039534
:1014C000FEF78AFE05B0F0BD00100240000C01409E
:1014D0000907090E002806DA00F00F0000F1E020ED
:1014E00080F8141D704700F1E02080F80014704768
:1014F00010B5FEF75BFFBDE81040FFF7FDBC000034
:1015000030B591B0012000240090CDE901040225FE
:101510000004CDE907504FF4E01009906846FFF74A
:1015200065F90520CDE90A056802CDE90C400221E4
:101530000AA80E94FEF7B8FF0C48816941F001013A
:101540008161806900F001000F90FFF7F1F8084910
:10155000B0FBF1F0FFF7BCFC0420FFF7ACFC00226D
:101560001146501EFEF76EFF11B030BD0010024054
:1015700040420F000D48016841F0010101604168DF
:101580000B4A1140416001680A4A1140016001683C
:1015900021F480210160416821F4FE0141604FF493
:1015A0001F0181600449C0030860704700100240B9
:1015B0000000FFF8FFFFF6FE08ED00E00148FFF72E
:1015C000B8BD000044000020F0B50268144B154C73
:1015D000154D4FF08047984205D0B84203D0A04245
:1015E00001D0A84203D122F070064A6832439842E3
:1015F00005D0B84203D0A04201D0A84203D122F4C2
:101600004074CA68224302608A68C2620A688262C1
:10161000984201D10969016301214161F0BD0000D7
:10162000002C0140000400400008004010B50123D8
:10163000046A8B409C430462036A8A40134303623A
:1016400010BD10B5846842EA032224F47F440A43A3
:101650002243826010BD826822F070020A4342F089
:10166000070181607047000030B5026A22F0010274
:101670000262026A4368846924F073050C682C4393
:1016800022F002058A682A430A4DA8420BD122F0B3
:101690000805CA6823F440732A434D6922F0040206
:1016A0001D438B692B434360846149684163026237
:1016B00030BD0000002C014030B5026A22F010025B
:1016C0000262026A436884690D6824F4E64444EACD
:1016D00005248D6822F0200242EA05120B4DA84233
:1016E0000ED1CD6822F0800242EA05124D6923F442
:1016F000406343EA85038D6922F0400243EA850393
:101700004360846149688163026230BD002C0140FE
:1017100030B5026A22F480720262036A4268C469C8
:1017200023F4007324F073050C682C438D6843EA9E
:1017300005230C4DA8420ED1CD6823F4006343EA83
:1017400005234D6922F4405242EA05128D6923F4C3
:10175000806342EA05124260C4614968C163036262
:1017600030BD0000002C014030B5026A22F48052E6
:101770000262046A4268C3690D6823F4E64343EADF
:1017800005238D6824F4005444EA0534064DA8422C
:1017900004D14D6922F4804242EA85124260C3615D
:1017A00049680164046230BD002C014010B5036A31
:1017B000046A24F001040462846924F0F00444EA19
:1017C000021423F00A020A438461026210BD10B5BC
:1017D000036A23F0100303628369046A23F47043ED
:1017E00043EA023224F0A00343EA0111826101625C
:1017F00010BD02E008C8121F08C1002AFAD17047C4
:101800007047002001E001C1121F002AFBD1704780
:10181000FEF7D4FDFFF774FEFFF724FEFEF794FCFD
:101820000348FFF7DDFB08210148FFF7E5FDFEE770
:101830004400002000000000010203040102030430
:101840000607080964180008000000204400000092
:10185000F2170008A8180008440000203C0400000B
:1018600002180008000000000100000000A24A0465
:101870000000000000000000010203040607080940
:1018800001010202030406080A0E1319212C3B5021
:101890006B8FBFFFFFBF8F6B503B2C2119130E0ABC
:0818A000080604030202010125
:04000005080000ED02
:00000001FF
